{
  "contractName": "Marketplace",
  "abi": [
    {
      "constant": true,
      "inputs": [],
      "name": "name",
      "outputs": [
        {
          "name": "",
          "type": "string"
        }
      ],
      "payable": false,
      "stateMutability": "view",
      "type": "function",
      "signature": "0x06fdde03"
    },
    {
      "constant": true,
      "inputs": [
        {
          "name": "",
          "type": "uint256"
        }
      ],
      "name": "products",
      "outputs": [
        {
          "name": "id",
          "type": "uint256"
        },
        {
          "name": "name",
          "type": "string"
        },
        {
          "name": "price",
          "type": "uint256"
        },
        {
          "name": "Address",
          "type": "string"
        },
        {
          "name": "plates",
          "type": "string"
        },
        {
          "name": "VIN",
          "type": "string"
        },
        {
          "name": "engineno",
          "type": "string"
        },
        {
          "name": "owner",
          "type": "address"
        },
        {
          "name": "forSale",
          "type": "bool"
        }
      ],
      "payable": false,
      "stateMutability": "view",
      "type": "function",
      "signature": "0x7acc0b20"
    },
    {
      "constant": true,
      "inputs": [],
      "name": "productCount",
      "outputs": [
        {
          "name": "",
          "type": "uint256"
        }
      ],
      "payable": false,
      "stateMutability": "view",
      "type": "function",
      "signature": "0xe0f6ef87"
    },
    {
      "inputs": [],
      "payable": false,
      "stateMutability": "nonpayable",
      "type": "constructor",
      "signature": "constructor"
    },
    {
      "anonymous": false,
      "inputs": [
        {
          "indexed": false,
          "name": "id",
          "type": "uint256"
        },
        {
          "indexed": false,
          "name": "name",
          "type": "string"
        },
        {
          "indexed": false,
          "name": "price",
          "type": "uint256"
        },
        {
          "indexed": false,
          "name": "Address",
          "type": "string"
        },
        {
          "indexed": false,
          "name": "plates",
          "type": "string"
        },
        {
          "indexed": false,
          "name": "VIN",
          "type": "string"
        },
        {
          "indexed": false,
          "name": "engineno",
          "type": "string"
        },
        {
          "indexed": false,
          "name": "owner",
          "type": "address"
        },
        {
          "indexed": false,
          "name": "forSale",
          "type": "bool"
        }
      ],
      "name": "ProductCreated",
      "type": "event",
      "signature": "0x40024f4f335709e8315e9bdf8793f6ed5033c18b359f60bb4bf72c7f60093c19"
    },
    {
      "anonymous": false,
      "inputs": [
        {
          "indexed": false,
          "name": "id",
          "type": "uint256"
        },
        {
          "indexed": false,
          "name": "owner",
          "type": "address"
        }
      ],
      "name": "ProductTransfered",
      "type": "event",
      "signature": "0x19074a38c419a355a5b826a065173537e7dbf3a17eefe1e86f691e4564ef4048"
    },
    {
      "anonymous": false,
      "inputs": [
        {
          "indexed": false,
          "name": "id",
          "type": "uint256"
        },
        {
          "indexed": false,
          "name": "name",
          "type": "string"
        },
        {
          "indexed": false,
          "name": "price",
          "type": "uint256"
        },
        {
          "indexed": false,
          "name": "Address",
          "type": "string"
        },
        {
          "indexed": false,
          "name": "plates",
          "type": "string"
        },
        {
          "indexed": false,
          "name": "VIN",
          "type": "string"
        },
        {
          "indexed": false,
          "name": "engineno",
          "type": "string"
        },
        {
          "indexed": false,
          "name": "owner",
          "type": "address"
        },
        {
          "indexed": false,
          "name": "forSale",
          "type": "bool"
        }
      ],
      "name": "ProductPurchased",
      "type": "event",
      "signature": "0x31698e98b4f264e62de4453425a188a1e55d6482d2eeefec075ee032ead13cbb"
    },
    {
      "anonymous": false,
      "inputs": [
        {
          "indexed": false,
          "name": "id",
          "type": "uint256"
        },
        {
          "indexed": false,
          "name": "forSale",
          "type": "bool"
        }
      ],
      "name": "AddToStore",
      "type": "event",
      "signature": "0xe5600c42aea7a9a87dca0ee746c52d1446d1c2c3d214dd4319ea315d05a58573"
    },
    {
      "anonymous": false,
      "inputs": [
        {
          "indexed": false,
          "name": "id",
          "type": "uint256"
        },
        {
          "indexed": false,
          "name": "forSale",
          "type": "bool"
        }
      ],
      "name": "RemoveFromStore",
      "type": "event",
      "signature": "0x25df82a4c050e20b3bda357b13b3a4ef6d22008010cd7e54bf1ac7696393dfdd"
    },
    {
      "constant": false,
      "inputs": [
        {
          "name": "_name",
          "type": "string"
        },
        {
          "name": "_price",
          "type": "uint256"
        },
        {
          "name": "_Address",
          "type": "string"
        },
        {
          "name": "_plates",
          "type": "string"
        },
        {
          "name": "_VIN",
          "type": "string"
        },
        {
          "name": "_engineno",
          "type": "string"
        },
        {
          "name": "owner",
          "type": "address"
        }
      ],
      "name": "createProduct",
      "outputs": [],
      "payable": false,
      "stateMutability": "nonpayable",
      "type": "function",
      "signature": "0x320e428a"
    },
    {
      "constant": false,
      "inputs": [
        {
          "name": "_id",
          "type": "uint256"
        },
        {
          "name": "buyer",
          "type": "address"
        }
      ],
      "name": "transferOwnership",
      "outputs": [],
      "payable": true,
      "stateMutability": "payable",
      "type": "function",
      "signature": "0x29507f73"
    },
    {
      "constant": false,
      "inputs": [
        {
          "name": "_id",
          "type": "uint256"
        }
      ],
      "name": "purchaseProduct",
      "outputs": [],
      "payable": true,
      "stateMutability": "payable",
      "type": "function",
      "signature": "0x38e76a03"
    },
    {
      "constant": false,
      "inputs": [
        {
          "name": "_id",
          "type": "uint256"
        }
      ],
      "name": "addToStore",
      "outputs": [],
      "payable": true,
      "stateMutability": "payable",
      "type": "function",
      "signature": "0xd9925409"
    },
    {
      "constant": false,
      "inputs": [
        {
          "name": "_id",
          "type": "uint256"
        }
      ],
      "name": "removeFromStore",
      "outputs": [],
      "payable": true,
      "stateMutability": "payable",
      "type": "function",
      "signature": "0x1663bb6b"
    }
  ],
  "bytecode": "0x608060405260006001553480156200001657600080fd5b50606060405190810160405280602281526020017f416c6161204b68616c6564204f776e65727368697020677261642070726f6a6581526020017f6374000000000000000000000000000000000000000000000000000000000000815250600090805190602001906200008b92919062000092565b5062000141565b828054600181600116156101000203166002900490600052602060002090601f016020900481019282601f10620000d557805160ff191683800117855562000106565b8280016001018555821562000106579182015b8281111562000105578251825591602001919060010190620000e8565b5b50905062000115919062000119565b5090565b6200013e91905b808211156200013a57600081600090555060010162000120565b5090565b90565b611ca180620001516000396000f3fe60806040526004361061008e576000357c0100000000000000000000000000000000000000000000000000000000900463ffffffff16806306fdde03146100935780631663bb6b1461012357806329507f7314610151578063320e428a1461019f57806338e76a03146104ed5780637acc0b201461051b578063d9925409146107cb578063e0f6ef87146107f9575b600080fd5b34801561009f57600080fd5b506100a8610824565b6040518080602001828103825283818151815260200191508051906020019080838360005b838110156100e85780820151818401526020810190506100cd565b50505050905090810190601f1680156101155780820380516001836020036101000a031916815260200191505b509250505060405180910390f35b61014f6004803603602081101561013957600080fd5b81019080803590602001909291905050506108c2565b005b61019d6004803603604081101561016757600080fd5b8101908080359060200190929190803573ffffffffffffffffffffffffffffffffffffffff169060200190929190505050610938565b005b3480156101ab57600080fd5b506104eb600480360360e08110156101c257600080fd5b81019080803590602001906401000000008111156101df57600080fd5b8201836020820111156101f157600080fd5b8035906020019184600183028401116401000000008311171561021357600080fd5b91908080601f016020809104026020016040519081016040528093929190818152602001838380828437600081840152601f19601f820116905080830192505050505050509192919290803590602001909291908035906020019064010000000081111561028057600080fd5b82018360208201111561029257600080fd5b803590602001918460018302840111640100000000831117156102b457600080fd5b91908080601f016020809104026020016040519081016040528093929190818152602001838380828437600081840152601f19601f8201169050808301925050505050505091929192908035906020019064010000000081111561031757600080fd5b82018360208201111561032957600080fd5b8035906020019184600183028401116401000000008311171561034b57600080fd5b91908080601f016020809104026020016040519081016040528093929190818152602001838380828437600081840152601f19601f820116905080830192505050505050509192919290803590602001906401000000008111156103ae57600080fd5b8201836020820111156103c057600080fd5b803590602001918460018302840111640100000000831117156103e257600080fd5b91908080601f016020809104026020016040519081016040528093929190818152602001838380828437600081840152601f19601f8201169050808301925050505050505091929192908035906020019064010000000081111561044557600080fd5b82018360208201111561045757600080fd5b8035906020019184600183028401116401000000008311171561047957600080fd5b91908080601f016020809104026020016040519081016040528093929190818152602001838380828437600081840152601f19601f820116905080830192505050505050509192919290803573ffffffffffffffffffffffffffffffffffffffff1690602001909291905050506109fc565b005b6105196004803603602081101561050357600080fd5b8101908080359060200190929190505050610e9a565b005b34801561052757600080fd5b506105546004803603602081101561053e57600080fd5b810190808035906020019092919050505061177c565b604051808a815260200180602001898152602001806020018060200180602001806020018873ffffffffffffffffffffffffffffffffffffffff1673ffffffffffffffffffffffffffffffffffffffff1681526020018715151515815260200186810386528e818151815260200191508051906020019080838360005b838110156105ec5780820151818401526020810190506105d1565b50505050905090810190601f1680156106195780820380516001836020036101000a031916815260200191505b5086810385528c818151815260200191508051906020019080838360005b83811015610652578082015181840152602081019050610637565b50505050905090810190601f16801561067f5780820380516001836020036101000a031916815260200191505b5086810384528b818151815260200191508051906020019080838360005b838110156106b857808201518184015260208101905061069d565b50505050905090810190601f1680156106e55780820380516001836020036101000a031916815260200191505b5086810383528a818151815260200191508051906020019080838360005b8381101561071e578082015181840152602081019050610703565b50505050905090810190601f16801561074b5780820380516001836020036101000a031916815260200191505b50868103825289818151815260200191508051906020019080838360005b83811015610784578082015181840152602081019050610769565b50505050905090810190601f1680156107b15780820380516001836020036101000a031916815260200191505b509e50505050505050505050505050505060405180910390f35b6107f7600480360360208110156107e157600080fd5b8101908080359060200190929190505050611aef565b005b34801561080557600080fd5b5061080e611b65565b6040518082815260200191505060405180910390f35b60008054600181600116156101000203166002900480601f0160208091040260200160405190810160405280929190818152602001828054600181600116156101000203166002900480156108ba5780601f1061088f576101008083540402835291602001916108ba565b820191906000526020600020905b81548152906001019060200180831161089d57829003601f168201915b505050505081565b60006002600083815260200190815260200160002060070160146101000a81548160ff0219169083151502179055507f25df82a4c050e20b3bda357b13b3a4ef6d22008010cd7e54bf1ac7696393dfdd81600160405180838152602001821515151581526020019250505060405180910390a150565b806002600084815260200190815260200160002060070160006101000a81548173ffffffffffffffffffffffffffffffffffffffff021916908373ffffffffffffffffffffffffffffffffffffffff1602179055507f19074a38c419a355a5b826a065173537e7dbf3a17eefe1e86f691e4564ef40488282604051808381526020018273ffffffffffffffffffffffffffffffffffffffff1673ffffffffffffffffffffffffffffffffffffffff1681526020019250505060405180910390a15050565b60008751111515610a0c57600080fd5b600086111515610a1b57600080fd5b60008551111515610a2b57600080fd5b60008451111515610a3b57600080fd5b60008351111515610a4b57600080fd5b60008251111515610a5b57600080fd5b6001600081548092919060010191905055506101206040519081016040528060015481526020018881526020018781526020018681526020018581526020018481526020018381526020018273ffffffffffffffffffffffffffffffffffffffff16815260200160001515815250600260006001548152602001908152602001600020600082015181600001556020820151816001019080519060200190610b04929190611b6b565b50604082015181600201556060820151816003019080519060200190610b2b929190611b6b565b506080820151816004019080519060200190610b48929190611b6b565b5060a0820151816005019080519060200190610b65929190611b6b565b5060c0820151816006019080519060200190610b82929190611b6b565b5060e08201518160070160006101000a81548173ffffffffffffffffffffffffffffffffffffffff021916908373ffffffffffffffffffffffffffffffffffffffff1602179055506101008201518160070160146101000a81548160ff0219169083151502179055509050507f40024f4f335709e8315e9bdf8793f6ed5033c18b359f60bb4bf72c7f60093c19600154888888888888886000604051808a815260200180602001898152602001806020018060200180602001806020018873ffffffffffffffffffffffffffffffffffffffff1673ffffffffffffffffffffffffffffffffffffffff1681526020018715151515815260200186810386528e818151815260200191508051906020019080838360005b83811015610cb3578082015181840152602081019050610c98565b50505050905090810190601f168015610ce05780820380516001836020036101000a031916815260200191505b5086810385528c818151815260200191508051906020019080838360005b83811015610d19578082015181840152602081019050610cfe565b50505050905090810190601f168015610d465780820380516001836020036101000a031916815260200191505b5086810384528b818151815260200191508051906020019080838360005b83811015610d7f578082015181840152602081019050610d64565b50505050905090810190601f168015610dac5780820380516001836020036101000a031916815260200191505b5086810383528a818151815260200191508051906020019080838360005b83811015610de5578082015181840152602081019050610dca565b50505050905090810190601f168015610e125780820380516001836020036101000a031916815260200191505b50868103825289818151815260200191508051906020019080838360005b83811015610e4b578082015181840152602081019050610e30565b50505050905090810190601f168015610e785780820380516001836020036101000a031916815260200191505b509e50505050505050505050505050505060405180910390a150505050505050565b610ea2611beb565b60026000838152602001908152602001600020610120604051908101604052908160008201548152602001600182018054600181600116156101000203166002900480601f016020809104026020016040519081016040528092919081815260200182805460018160011615610100020316600290048015610f655780601f10610f3a57610100808354040283529160200191610f65565b820191906000526020600020905b815481529060010190602001808311610f4857829003601f168201915b5050505050815260200160028201548152602001600382018054600181600116156101000203166002900480601f0160208091040260200160405190810160405280929190818152602001828054600181600116156101000203166002900480156110115780601f10610fe657610100808354040283529160200191611011565b820191906000526020600020905b815481529060010190602001808311610ff457829003601f168201915b50505050508152602001600482018054600181600116156101000203166002900480601f0160208091040260200160405190810160405280929190818152602001828054600181600116156101000203166002900480156110b35780601f10611088576101008083540402835291602001916110b3565b820191906000526020600020905b81548152906001019060200180831161109657829003601f168201915b50505050508152602001600582018054600181600116156101000203166002900480601f0160208091040260200160405190810160405280929190818152602001828054600181600116156101000203166002900480156111555780601f1061112a57610100808354040283529160200191611155565b820191906000526020600020905b81548152906001019060200180831161113857829003601f168201915b50505050508152602001600682018054600181600116156101000203166002900480601f0160208091040260200160405190810160405280929190818152602001828054600181600116156101000203166002900480156111f75780601f106111cc576101008083540402835291602001916111f7565b820191906000526020600020905b8154815290600101906020018083116111da57829003601f168201915b505050505081526020016007820160009054906101000a900473ffffffffffffffffffffffffffffffffffffffff1673ffffffffffffffffffffffffffffffffffffffff1673ffffffffffffffffffffffffffffffffffffffff1681526020016007820160149054906101000a900460ff161515151581525050905060008160e001519050600082600001511180156112965750600154826000015111155b15156112a157600080fd5b816040015134101515156112b457600080fd5b3373ffffffffffffffffffffffffffffffffffffffff168173ffffffffffffffffffffffffffffffffffffffff16141515156112ef57600080fd5b60011515826101000151151514151561130757600080fd5b338260e0019073ffffffffffffffffffffffffffffffffffffffff16908173ffffffffffffffffffffffffffffffffffffffff1681525050600082610100019015159081151581525050816002600085815260200190815260200160002060008201518160000155602082015181600101908051906020019061138b929190611b6b565b506040820151816002015560608201518160030190805190602001906113b2929190611b6b565b5060808201518160040190805190602001906113cf929190611b6b565b5060a08201518160050190805190602001906113ec929190611b6b565b5060c0820151816006019080519060200190611409929190611b6b565b5060e08201518160070160006101000a81548173ffffffffffffffffffffffffffffffffffffffff021916908373ffffffffffffffffffffffffffffffffffffffff1602179055506101008201518160070160146101000a81548160ff0219169083151502179055509050508073ffffffffffffffffffffffffffffffffffffffff166108fc349081150290604051600060405180830381858888f193505050501580156114bb573d6000803e3d6000fd5b507f31698e98b4f264e62de4453425a188a1e55d6482d2eeefec075ee032ead13cbb60015483602001518460400151856060015186608001518760a001518860c00151336000604051808a815260200180602001898152602001806020018060200180602001806020018873ffffffffffffffffffffffffffffffffffffffff1673ffffffffffffffffffffffffffffffffffffffff1681526020018715151515815260200186810386528e818151815260200191508051906020019080838360005b8381101561159957808201518184015260208101905061157e565b50505050905090810190601f1680156115c65780820380516001836020036101000a031916815260200191505b5086810385528c818151815260200191508051906020019080838360005b838110156115ff5780820151818401526020810190506115e4565b50505050905090810190601f16801561162c5780820380516001836020036101000a031916815260200191505b5086810384528b818151815260200191508051906020019080838360005b8381101561166557808201518184015260208101905061164a565b50505050905090810190601f1680156116925780820380516001836020036101000a031916815260200191505b5086810383528a818151815260200191508051906020019080838360005b838110156116cb5780820151818401526020810190506116b0565b50505050905090810190601f1680156116f85780820380516001836020036101000a031916815260200191505b50868103825289818151815260200191508051906020019080838360005b83811015611731578082015181840152602081019050611716565b50505050905090810190601f16801561175e5780820380516001836020036101000a031916815260200191505b509e50505050505050505050505050505060405180910390a1505050565b6002602052806000526040600020600091509050806000015490806001018054600181600116156101000203166002900480601f01602080910402602001604051908101604052809291908181526020018280546001816001161561010002031660029004801561182e5780601f106118035761010080835404028352916020019161182e565b820191906000526020600020905b81548152906001019060200180831161181157829003601f168201915b505050505090806002015490806003018054600181600116156101000203166002900480601f0160208091040260200160405190810160405280929190818152602001828054600181600116156101000203166002900480156118d25780601f106118a7576101008083540402835291602001916118d2565b820191906000526020600020905b8154815290600101906020018083116118b557829003601f168201915b505050505090806004018054600181600116156101000203166002900480601f0160208091040260200160405190810160405280929190818152602001828054600181600116156101000203166002900480156119705780601f1061194557610100808354040283529160200191611970565b820191906000526020600020905b81548152906001019060200180831161195357829003601f168201915b505050505090806005018054600181600116156101000203166002900480601f016020809104026020016040519081016040528092919081815260200182805460018160011615610100020316600290048015611a0e5780601f106119e357610100808354040283529160200191611a0e565b820191906000526020600020905b8154815290600101906020018083116119f157829003601f168201915b505050505090806006018054600181600116156101000203166002900480601f016020809104026020016040519081016040528092919081815260200182805460018160011615610100020316600290048015611aac5780601f10611a8157610100808354040283529160200191611aac565b820191906000526020600020905b815481529060010190602001808311611a8f57829003601f168201915b5050505050908060070160009054906101000a900473ffffffffffffffffffffffffffffffffffffffff16908060070160149054906101000a900460ff16905089565b60016002600083815260200190815260200160002060070160146101000a81548160ff0219169083151502179055507fe5600c42aea7a9a87dca0ee746c52d1446d1c2c3d214dd4319ea315d05a5857381600160405180838152602001821515151581526020019250505060405180910390a150565b60015481565b828054600181600116156101000203166002900490600052602060002090601f016020900481019282601f10611bac57805160ff1916838001178555611bda565b82800160010185558215611bda579182015b82811115611bd9578251825591602001919060010190611bbe565b5b509050611be79190611c50565b5090565b6101206040519081016040528060008152602001606081526020016000815260200160608152602001606081526020016060815260200160608152602001600073ffffffffffffffffffffffffffffffffffffffff1681526020016000151581525090565b611c7291905b80821115611c6e576000816000905550600101611c56565b5090565b9056fea165627a7a72305820a846ea2c60d7f1b9a29011209e509af9f67e979c458d401eb922a22d990858980029",
  "source": "pragma solidity <=0.5.0;\n\ncontract Marketplace {\n    string public name;\n    uint256 public productCount = 0;\n    mapping(uint256 => Product) public products;\n\n    struct Product {\n        uint256 id;\n        string name;\n        uint256 price;\n        string Address;\n        string plates;\n        string VIN;\n        string engineno;\n        address payable owner;\n        bool forSale;\n    }\n\n    event ProductCreated(\n        uint256 id,\n        string name,\n        uint256 price,\n        string Address,\n        string plates,\n        string VIN,\n        string engineno,\n        address payable owner,\n        bool forSale\n    );\n\n    event ProductTransfered(\n        uint256 id,\n        address payable owner\n    );\n\n    event ProductPurchased(\n        uint256 id,\n        string name,\n        uint256 price,\n        string Address,\n        string plates,\n        string VIN,\n        string engineno,\n        address payable owner,\n        bool forSale\n    );\n\n    event AddToStore(\n        uint256 id,\n        bool forSale\n    );\n\n    event RemoveFromStore(\n        uint256 id,\n        bool forSale\n    );\n\n    constructor() public {\n        name = \"Alaa Khaled Ownership grad project\";\n    }\n\n    function createProduct(string memory _name, uint256 _price, string memory _Address, string memory _plates, string memory _VIN, string memory _engineno, address payable owner) public {\n        require(bytes(_name).length > 0);\n        require(_price > 0);\n        require(bytes(_Address).length > 0);\n        require(bytes(_plates).length > 0);\n        require(bytes(_VIN).length > 0);\n        require(bytes(_engineno).length > 0);\n        productCount++;\n        products[productCount] = Product(\n            productCount,\n            _name,\n            _price,\n            _Address,\n            _plates,\n            _VIN,\n            _engineno,\n            owner,\n            false\n        );\n        emit ProductCreated(productCount, _name, _price, _Address, _plates, _VIN, _engineno, owner, false);\n    }\n\n    function transferOwnership(uint256 _id, address payable buyer) public payable {\n        // Fetch the product\n        products[_id].owner = buyer;\n\n        emit ProductTransfered(_id, buyer);\n    }\n\n    function purchaseProduct(uint256 _id) public payable {\n        // Fetch the product\n        Product memory _product = products[_id];\n        // Fetch the owner\n        address payable _seller = _product.owner;\n        // Make sure that product has a valid id\n        require(_product.id > 0 && _product.id <= productCount);\n        // Require that there is enough Ether in the transaction\n        require(msg.value >= _product.price);\n        // Require that the product has not been purchased already\n        // require(!_product.purchased);\n        // Require that the buyer is not the seller\n        require(_seller != msg.sender);\n        // Require car to be for sale\n        require(_product.forSale == true);\n        // Transfer ownership to the buyer\n        _product.owner = msg.sender;\n        // Mark as purchased\n        _product.forSale = false;\n        // Update the product\n        products[_id] = _product;\n        // Py the seller by sending them Ether\n        address(_seller).transfer(msg.value);\n        // Trigger an event\n        emit ProductPurchased(\n            productCount,\n            _product.name,\n            _product.price,\n            _product.Address,\n            _product.plates,\n            _product.VIN,\n            _product.engineno,\n            msg.sender,\n            false\n        );\n    }\n\n    function addToStore(uint256 _id) public payable {\n        products[_id].forSale = true;\n        emit AddToStore(\n            _id,\n            true\n        );\n    }\n    \n    function removeFromStore(uint256 _id) public payable {\n        products[_id].forSale = false;\n        emit RemoveFromStore(\n            _id,\n            true\n        );\n    }\n}\n\n",
  "sourcePath": "D:/ownership-main/contracts/Marketplace.sol",
  "compiler": {
    "name": "solc",
    "version": "0.5.0+commit.1d4f565a.Emscripten.clang"
  },
  "schemaVersion": "3.0.1",
  "updatedAt": "2022-07-13T22:25:02.488Z",
  "devdoc": {
    "methods": {}
  },
  "userdoc": {
    "methods": {}
  }
}